:020000040800F2
:1000000088090020E9010008F9480008E5440008D3
:10001000C548000879180008CD500008000000000D
:10002000000000000000000000000000A14A0008DD
:100030008D18000800000000FD480008D14A0008A3
:10004000030200080302000803020008030200087C
:10005000030200080302000803020008030200086C
:10006000AD1800080302000803020008030200089C
:100070007D180008030200080302000803020008BC
:1000800003020008030200087D17000803020008AD
:10009000030200080302000803020008030200082C
:1000A000030200080302000803020008030200081C
:1000B000514B0008614B00080000000003020008DB
:1000C0000302000800000000000000000302000816
:1000D0000000000003020008030200080000000006
:1000E00003020008030200080302000800F002F8FF
:1000F00000F050F80AA090E8000C82448344AAF172
:100100000107DA4501D100F045F8AFF2090EBAE86F
:100110000F0013F0010F18BFFB1A43F0010318473B
:10012000E85E0000085F0000103A24BF78C878C17C
:10013000FAD8520724BF30C830C144BF04680C60ED
:10014000704700000023002400250026103A28BF35
:1001500078C1FBD8520728BF30C148BF0B60704739
:10016000662905F0F986642900F026810020704791
:100170001FB59DE8030000F067FA00F0F6F900F003
:1001800055FD04000020002105F07AFBE0601FBD52
:1001900010B510BD00F068FE1146FFF7E9FF05F04D
:1001A0004FFA00F086FE03B4FFF7F2FF03BC00F045
:1001B000F7FE00000B49D1F800C04A685CF8043B28
:1001C0001068184442F8040B8C4528BFA1F1DC0CE0
:1001D0008A4228BFA1F1DC02C1F800C04A6020F0C9
:1001E000004070471C030020094880470948004729
:1001F000FEE7FEE7FEE7FEE7FEE7FEE7FEE7FEE7D7
:10020000FEE7FEE704480549054A064B7047000033
:100210004D4B0008ED0000088803002088090020ED
:10022000880500208805002070B5064600F0F0F92A
:10023000056806F10B0020F00704B4429CBF0020C3
:1002400070BD2B466A68BAB11068A04210D304F1A1
:10025000080188423CBF5068586007D351681019A4
:1002600041601168091B016058601460101D70BD69
:1002700013465268002AE7D12146284600F0D0F9FB
:100280000028DED170BD70B50446051F00F0C0F92E
:100290000068002C14BF446870BD002C18BFAC422D
:1002A0003CBF20466468F8D301680A18AA4218BF08
:1002B000456003D12A680546114401602868411948
:1002C000A1421CBF6C6070BD616869602168084410
:1002D000286070BD70B50D460646041F00F098F901
:1002E000D0F800C0C5B1E6B105F10B0020F007035E
:1002F000AB423CBF002070BD2068984238BFDCF89C
:10030000042013D3C11A08292FD3E01840F8041B86
:100310002360FFF7B8FF28E03046FFF7B4FF002066
:1003200070BD2846BDE87040FFF77EBF002A18BFA9
:10033000A2423CBF94465268F8D30119914216D1AB
:1003400011680844984212D3C11A08293CBF2060A2
:10035000506808D35168E018416021681268114460
:10036000C91A01602360CCF80400201D70BD181F5D
:10037000FFF75AFF050007D021680A1F211D00F072
:100380001EFC201DFFF77FFF284670BD0FB41CB573
:10039000084B06AA7B4469460090059800F0F7FBDD
:1003A00004460020694600F005FC20461CBC5DF8B0
:1003B00014FB00001D0800002DE9F0410646002452
:1003C00010687529314616A510D0AFF300800028BB
:1003D00002DA404213A507E031688A0701D512A569
:1003E00002E0490704D511A5012401E0AFF3008024
:1003F00000210A2206F1240709E0B0FBF2FCB0FB61
:10040000F2F302FB1C00303078541846491C0028D7
:10041000F3D123462A463046BDE8F04100F04AB900
:10042000000000002D0000002B0000002000000054
:100430002DE9F0474FF0000A89460446C0F820A095
:100440002046E1688847002876D0252806D0D4E9E0
:1004500001219047206A401C2062F1E7E1682046B4
:1004600000258847C4F81CA006460027C4F818A039
:100470002A2E09D0304604F05BFE38B304EB87081F
:10048000303EC8F8186019E059F8041B204604EB08
:1004900087029161E1688847012F064618D1E0691B
:1004A000002820DA25F020051DE0D8F8180000EB20
:1004B000800006EB40003038C8F818002046E1689C
:1004C0008847064604F034FE0028EED1012F0AD0FA
:1004D0002E2E08D12046E16888477F1C0646022F51
:1004E00045F02005C4DBA069002803DA404245F04E
:1004F0000105A061E80701D025F01005B6B1A6F10D
:100500004100192802D8203645F400654A46314694
:10051000204625604D46FFF723FE58B1012806D03E
:10052000ED1D25F0070000F1080989E704E005F159
:10053000040985E730468AE7206ABDE8F0870000B5
:100540000B4910B5A1F17C020A4CC2E937123721E0
:1005500006E000EB104342F82130074B00FB03405C
:100560000B1EA1F10101F4DC10BD0120E8E7000041
:10057000BC020020E119D666CD0D010010B5431C68
:1005800002E010F8011B71B18107FAD14FF001327E
:1005900002C88C1A8C4314EAC211F9D0C01A0A0698
:1005A00003D0C01E10BDC01A10BD0A0401D0801EA9
:1005B00010BD0902FCD0401E10BD4FF0000200B576
:1005C000134694469646203922BFA0E80C50A0E876
:1005D0000C50B1F12001BFF4F7AF090728BFA0E824
:1005E0000C5048BF0CC05DF804EB890028BF40F8F0
:1005F000042B08BF704748BF20F8022B11F0804F32
:1006000018BF00F8012B7047704770477047000013
:10061000004870472C0300207047704770477047B0
:1006200038B504460A4600206946AFF3008000282A
:1006300008BF38BD02460099204600F0FBFA0120B1
:1006400038BD012000F008BCF8B5AFF300800546C6
:1006500000200C46102000BF0646A819A0420DD964
:10066000324669460020AFF30080070008BF00F063
:10067000F3FB0098A04218BF0546C419FFF7C8FF56
:1006800005600746F01D20F007004619284600F0D7
:100690000AF8B44208BFF8BDA21B31463868BDE86D
:1006A000F84000F0C7BA00210160C0E901107047AE
:1006B000102070472DE9F0470D46994692460446B2
:1006C00000F124080168880604D5E06921F01001D2
:1006D000216000E00120A84201DD471B00E0002767
:1006E000A1697A1902EB0900081AA0612078C006F6
:1006F00002D42046AFF30080002608E0D4E90121AF
:100700001AF806009047206A401C761C20624E456D
:10071000F4DB2078C0060AD52046AFF3008006E05F
:10072000D4E9012130209047206A401C2062381E05
:10073000A7F10107F4DC07E0D4E9012118F805006E
:100740009047206A401C2062281EA5F10105F3DCB9
:100750002046AFF300802078000602D50220BDE8D5
:10076000F0870120FBE770472DE9FF4F0C461E463E
:100770004FF0FF378BB0D2E90001DDF860800A90BE
:100780008A46C1F30A5505B93D46002108464FF097
:100790000000BAF1000F00F4400005DA00EB800021
:1007A0004FF4400101EA50004FEA9059B9F1010FAE
:1007B00000DDB9460A9850EA4A000ED044F61050BF
:1007C000A5F2FF3545432F14B8F1000F1ED0754236
:1007D000291E1EDDC9F100021CE0B8F1010F4FF027
:1007E000000001D0302103E0F24305E02154401C19
:1007F000B042FBDB30460022002121540B99C1F8A6
:100800000880C1E900200FB0BDE8F08FBD1B6D1C52
:10081000DEE74A4600DA694206A800F0ABFA06AB0A
:1008200093E8070003AB83E8070050460A9900F0FD
:10083000DDFB8DE80700A0F500501F3800900398FD
:10084000002D0ADD42F21F014A460844002303A995
:100850000390684600F046FE09E0A0F500504A46C5
:100860001F38002303A90390684600F050FE8DE86E
:1008700007000004000C03D04FF0FF30410800E0F7
:100880001046B8F1000F03D00022009215461EE07A
:10089000751E05D400F0E8F9303262556D1EF9D5A9
:1008A000B3460122084302D000227F1C04E02078D6
:1008B000302801D100227F1E002A099784D01DE034
:1008C000112D07DA00F0D0F9303262556D1C50EA74
:1008D0000102F5D1084302D00098C8B10EE0002112
:1008E000681E05E0235C625C63542254401E491C70
:1008F0008142F7DBAB46A81B401E0990002004F89C
:100900000B000B98099AC0F80880C0E9002B7AE721
:1009100011264FF0000857E72DE9F04F88460446AE
:10092000D21D22F0070191B0D1E90001CDE90A0101
:1009300004F0CEFB02460B98C00F01D02D2007E03B
:100940002068810701D52B2002E0202101EAC000A8
:10095000032A099001D0072A05DB034641462046B9
:1009600000F0C8F90BE12078800601D5E06900E0CD
:100970000620B8F1650F814606D0B8F1660F18D091
:10098000B8F1670F70D131E00020B9F1110F00907C
:1009900001DB112301E009F101030AAA01A90CA856
:1009A000FFF7E2FEDDE90C70002609F10105834640
:1009B00047E001204B4600904FF000470AAA01A9EA
:1009C0000CA8FFF7D1FEDDE90DB00C995D460026BD
:1009D00010B909F101000D18B9EB050003D4C0F1FD
:1009E000FF3609F10105A5EB09002BE0B9F1010F74
:1009F00001DA4FF001090020B9F1110F00904846CB
:100A000001DD112300E003460AAA01A90CA8FFF7A3
:100A1000ABFEDDE90C704D460026834620780007CA
:100A20000AD4AB4500DA5D4601A8012D04DD411969
:100A300011F8011C302907D04F4502DA17F1040FD5
:100A400004DA012082460FE06D1EEEE7002F02DC83
:100A5000ED1B3E4403E0781CA84200DD7D1CB81B62
:100A600000F1010A4FF000472078000703D4AA459F
:100A700001DB4FF0FF3A0021B7F1004F0DF14308C1
:100A80008DF8431024D002202B23002F01DA7F425F
:100A90002D230A21021EA0F1010000DC5FB197FBAB
:100AA000F1FC97FBF1F201FB1C7C17460CF1300CBA
:100AB00008F801CDEEE7A8F10100037021880905CF
:100AC00001D5452100E06521A0F1010800F8011CD5
:100AD00009980FA9A1EB0807FF1D00B101204119DA
:100AE00001EBEA70A1693844081A401EA061207821
:100AF000C00602D42046AFF30080099828B1D4E99B
:100B000001219047206A401C20622078C00622D52F
:100B10002046AFF300801EE0002E04DBB34502DD6B
:100B200001A8805D00E03020D4E901219047206ACF
:100B3000401C2062761CAAF101005FEA000A0AD17B
:100B400000F074F8C0680168405CD4E90121904766
:100B5000206A401C2062281EA5F10105DCDC07E0AC
:100B6000D4E9012118F8010B9047206A401C20624B
:100B7000381EA7F10107F3DC2046AFF30080032005
:100B800011B041E601694A1C02610878704700B55E
:100B90008FB0CDE901310021059105497944CDE9B6
:100BA000031011466846FFF743FC0FB000BD00007C
:100BB000E5FFFFFF0A6802F8010B0A60704710B5F5
:100BC000203AC0F00B80B1E81850203AA0E8185045
:100BD000B1E81850A0E81850BFF4F5AF5FEA027C06
:100BE00024BFB1E81850A0E8185044BF18C918C075
:100BF000BDE810405FEA827C24BF51F8043B40F816
:100C0000043B08BF7047D20728BF31F8023B48BFFA
:100C100011F8012B28BF20F8023B48BF00F8012B38
:100C200070470000004870472403002000487047C8
:100C300044030020034640688C46002818BF8842C1
:100C40003CBF03464068F8D318681844884207D070
:100C50000CF1030020F00700001D411A521A014652
:100C6000081D0A60FFF70FBB30B5B0F10A024FEA6A
:100C7000900E71F100034EEA817EB0EB0E0061EB45
:100C800091014FEA101E4EEA017E10EB0E0041EB7F
:100C900011114FEA102E4EEA016E10EB0E0041EBDF
:100CA00011214FEA104E4EEA014E10EB0E0041EBBF
:100CB0001141401841F100014FEAD00040EA417073
:100CC0004FEAD10110EB80054FEA810444EA9074A9
:100CD00044EB01046D1944EB0404521BA3414FF093
:100CE000000348BF0A3200D530BD401C41F100016D
:100CF00030BD00002DE9F0411F460446032601687F
:100D0000072A01F4006004DB08B116A505E016A56A
:100D100003E008B115A500E015A521F01000206042
:100D2000A069C01EA0610FB1401EA0612046AFF3B4
:100D300000804FB1D4E9012138469047206A401C19
:100D40002062C01C206206E0206AFAE7D4E9012193
:100D500015F8010B9047761EF8D22046AFF30080BD
:100D6000BDE8F0814E414E006E616E00494E460076
:100D7000696E66002DE9F047814616468AB035480F
:100D800078440DC88DE80D0032487844801C03ACCF
:100D90000DC884E80D0041F69B300844372190FBD4
:100DA000F1F290FBF1F5A5F1800501FB12041B3C6B
:100DB00002D56442012000E00020DFF898A08046C0
:100DC0000027FA44AAF1BE0A0EE0E0070AD0324634
:100DD000684607EB470101230AEB810100F097FB0E
:100DE0008DE8070064107F1C002CEED1194F7F4462
:100DF000AE3F19E0E80715D007EB04100DF1180A13
:100E000090E80E008AE80E00C068F04201D19819FF
:100E100008903246012306A903A800F078FB03AB33
:100E200083E807006D10641C002DE3D14FF001032F
:100E300032466946B8F1000F03A802D000F052FB19
:100E400001E000F064FBC9E90001C9F808200AB01C
:100E5000BDE8F0876C52000010B500F039F8BDE82D
:100E6000104000F02FB870477546FFF7DBFEAE4626
:100E700005006946534620F00700854618B020B5A6
:100E8000FFF7C0F9BDE820404FF000064FF0000723
:100E90004FF000084FF0000B21F00701AC46ACE822
:100EA000C009ACE8C009ACE8C009ACE8C0098D468F
:100EB000704710B50446AFF300802046BDE81040EF
:100EC000FFF771B9002801D000F06AB87047000040
:100ED00010B5012805D0002103A000F067F801201B
:100EE00010BD09A1F8E7000053494752544D454D44
:100EF0003A204F7574206F662068656170206D65BB
:100F00006D6F7279000000003A2048656170206DB5
:100F1000656D6F727920636F7272757074656400AD
:100F20004FF0013C50F8042B51F8043B9A4221D178
:100F3000A2EB0C03934313EACC1317D150F8042B04
:100F400051F8043B9A4215D1A2EB0C03934313EAE8
:100F5000CC130BD150F8042B51F8043B9A4209D121
:100F6000A2EB0C03934313EACC13DBD04FF0000049
:100F7000704700BFD01A01BAB1FA81F101F018012F
:100F800022FA01F0CB40C1F12001DBB2C0B2C01A9D
:100F90002CFA01F3D11A914311EAC311E6D170473B
:100FA00001491820ABBEFEE72600020070B50546D9
:100FB0000C460A2000E06D1C00F011F835B12878CD
:100FC0000028F8D102E0641C00F009F814B1207880
:100FD0000028F8D1BDE870400A20AFF3008008B5C2
:100FE00069468DF800000320ABBE08BD5FEA400CE7
:100FF00008BF91F0000F4FEA8C234FEAC12243EA69
:1010000051514FEA1C5018BF00F5F0404FEA300034
:1010100018BF41F000415FEA6C5C00F02980BCF130
:10102000FF3F08BF40F080407047130C06BF12041A
:101030004FF0100C4FF0000C130E04BF12020CF115
:10104000080C130F04BF12010CF1040C930F04BF22
:1010500092000CF1020CD30F04BF52000CF1010CF2
:1010600011464FF00002A0F11F00A0EB0C007047EA
:1010700011F0004F08BF704731F000413FF4D5AF89
:101080000B0C06BF09044FF0100C4FF0000C0B0EB8
:1010900004BF09020CF1080C0B0F04BF09010CF18D
:1010A000040C8B0F04BF89000CF1020CCB0F04BFA2
:1010B00049000CF1010CCCF12003A0EB0C0022FA4A
:1010C00003F302FA0CF241EA030100F10100704758
:1010D00020F07F4C80EA030023F07F47ACEB07034E
:1010E00003F57C5300F0004003F1FF032DE9804934
:1010F0004FEA154B09B44FEA144325EA0B4E24EA94
:1011000003480FF2042606EB132749083E785FEAEE
:10111000320203FB0667C7F5000707FB06F64FEA36
:1011200054374FEAD64606F1020607FB066CCCF1AF
:10113000005C4FEA1C472CEA074C07FB06F40CFB4B
:1011400006F504EB15464FEA961634BF00204FF023
:1011500000404FEAD13706FB07FC4FEA1C4C0CFB62
:101160000BF7D21B03FB0CF761EB07010CFB0EF72F
:10117000B0EB074072EB17420CFB08F734BFA2EB51
:101180000742B2EB074261EB17414FEA0C444FEACA
:10119000910706FB07FC4FEA1C4C0CFB0BF7B0EB6E
:1011A000C74072EB573203FB0CF734BFA2EBC742C8
:1011B000B2EBC74261EB57310CFB0EF7B0EBC70047
:1011C00072EB57720CFB08F734BFA2EBC702B2EB0D
:1011D000C70261EB5771039F4FEA816141EA9211A7
:1011E00004EBCC044FEAD1374FEA826206FB07FCDE
:1011F00042EA90124FEA80604FEA1C4C0CFB0BF75E
:10120000D21B03FB0CF761EB07010CFB0EF7B0EBF5
:10121000074072EB17420CFB08F734BFA2EB074202
:10122000B2EB074261EB17414FEA8C554FEA910749
:1012300004EB9C2406FB07FC4FEA1C4C0CFB0BF751
:10124000B0EBC74072EB573203FB0CF734BFA2EB95
:10125000C742B2EBC74261EB57310CFB0EF7B0EB64
:10126000C70072EB57720CFB08F734BFA2EBC70242
:10127000B2EBC70261EB577115EB4C254FEA816168
:1012800041EA92114FEA82624FEAD13742EA901264
:1012900006FB07FC44F100044FEA80604FEA1C4C57
:1012A0000CFB0BF7D21B03FB0CF761EB07010CFBEC
:1012B0000EF7B0EB074072EB17420CFB08F734BF98
:1012C000A2EB0742B2EB074261EB174115EB1C158D
:1012D0004FEA813141EA92414FEA823242EA90423A
:1012E0004FEA80304FEA0C7644F1000448EA0343A9
:1012F0004EEA0B484FF0000EB2EB080C71EB0307FF
:1013000024BF624639464EEB0E0E4FF0000B00181C
:10131000524149414BEB0B0BB2EB080C71EB03074D
:101320007BF1000B24BF624639464EEB0E0E4FF0A8
:10133000000B0018524149414BEB0B0BB2EB080C70
:1013400071EB03077BF1000B24BF624639464EEB7D
:101350000E0E51EA020718BF46F0010616EB0E7694
:1013600055F1000254F1000103D5BDE88901BDE843
:101370000088BDE88901BDE80048B619524141EB3B
:101380000101A3F10103704780807F7E7D7C7B7A21
:101390007978777676757473727171706F6E6E6D21
:1013A0006C6C6B6A6A6968686766666564646363C7
:1013B00062616160605F5F5E5E5D5D5C5C5B5B5A4D
:1013C0005A595958585757565655555554545353BA
:1013D00052525251515050504F4F4F4E4E4D4D4D15
:1013E0004C4C4C4B4B4B4A4A4A4949494848484760
:1013F000474747464646454545444444444343439E
:101400004342424242414141002B9C4630D4770046
:101410002BD01CB54FEA370703B44FF010004FF044
:101420001001BAF1000F06D0BCF1000FDCBF40F094
:10143000080040F008014FF000000FBCBDE810406C
:101440000BF1010BBBF1010F08BF5FEA170722BFC9
:1014500012F1010211F101014FF0004143F10003CB
:1014600000F0004043EA00007047F9D35708D0E786
:1014700046EA064613F1400F4FEA16461FDD13F108
:10148000200FDFBF16430A46002120335B42BED047
:10149000C3F1200746EA064602FA07F74FEA164666
:1014A00046EA0706C3F1200722FA03F201FA07F71A
:1014B00021FA03F14FF0000342EA0702A7E746EAE8
:1014C000020646EA06464FEA164646EA0106BCBF51
:1014D00046EA0646360C4FF000034FF000024FF08C
:1014E000000194E72DE9804C9A46934670B491E848
:1014F000380007C831EA400C48BF34EA430C03D532
:10150000FFF7E6FDFFF780FFF0BCBDE8008C2DE99A
:10151000804C9A46934670B491E8380007C810F0A2
:10152000804F08BF13F0804F03D100F005F8FFF79C
:101530006BFFF0BCBDE8008C20F07F4780EA030021
:1015400023F07F4C07EB0C03A3F57C5300F0004025
:10155000A3F1FE0392F0000F00F0B38095F0000FAE
:1015600000F077802DE901494FEA11404FEA144617
:1015700021EA004800FB06FC24EA064708FB06F6C1
:1015800007FB08F800FB07F718EB06484CEB164C76
:101590004FEA124B18EB07484FEA15464CEB174041
:1015A00022EA0B4E0BFB06FC25EA06470EFB06F66D
:1015B00007FB0EFE0BFB07F71EEB064E4CEB164C23
:1015C0004FF000061EEB074E4CEB174B18EB0B08C9
:1015D00040F1000018EB0E0B58EB000840F1000042
:1015E0008F1A4FF000013CBFC943661B14BFB5EB17
:1015F000040C00213CBFC943F61B4FEA17444EEAD6
:101600008E0E27EA04454FEA1C4704FB07622CEACA
:10161000074C05FB07F70CFB05F604FB0CFC16EB6F
:10162000074642EB174216EB0C4642EB1C421BEB03
:10163000060658EB0202414146EA9E0601D5BDE886
:101640000189B619524141EB0101A3F10103BDE843
:1016500001894FEA14454FEA114724EA054621EA79
:10166000074C05FB07F406FB07F70CFB06F105FB2F
:101670000CFC11EB074144EB17444FEA124711EB06
:101680000C4144EB1C4422EA074C05FB07F206FB25
:1016900007F70CFB06F605FB0CFC16EB074642EBC6
:1016A000174216EB0C4642EB1C456A1854F1000138
:1016B00048BF7047B619524141EB0101A3F1010344
:1016C000704795F0000F37D04FEA11424FEA1447A8
:1016D00021EA024624EA074C02FB07F106FB07F762
:1016E0000CFB06F402FB0CFC14EB074441EB174126
:1016F0004FEA154714EB0C4441EB1C4125EA074C1B
:1017000002FB07F506FB07F70CFB06F602FB0CFCD9
:1017100016EB074645EB174516EB0C4645EB1C420E
:10172000121951F1000148BF7047B619524141EBFF
:101730000101A3F1010370474FEA14454FEA114735
:1017400024EA054621EA074C05FB07F106FB07F7EB
:101750000CFB06F24FF0000605FB0CFC12EB0742F7
:1017600041EB174112EB0C4251EB1C4148BF704753
:10177000921841EB0101A3F10103704710B5024833
:1017800000F002FA10BD00003400002070B50446DD
:1017900000252068806800F0010018B32068806888
:1017A00020F001002168886000F0C0FE054613E0CB
:1017B00000F0BCFE401B02280ED92068806800F0B3
:1017C000010048B1A06A40F01000A062E06A40F059
:1017D0000100E062012070BD2068806800F0010017
:1017E0000028E5D10020F6E738B5044600250020A2
:1017F00000902068806800F0010078BB2068806855
:1018000040F0010021688860194800681949B0FB60
:10181000F1F0009002E00098401E0090009800282F
:10182000F9D100F083FE054619E000F07FFE401B71
:10183000022814D92068806800F0010078B9A06AF5
:1018400040F01000A062E06A40F00100E06200BFDA
:10185000002084F8240000BF012038BD05E0206886
:10186000806800F001000028DFD00020F5E70000CC
:101870003000002040420F0000BFFEE710B50248D4
:1018800000F096FB10BD0000BC0000207047000077
:101890000021054A1268516200BF03490968496A7C
:1018A0008142FAD3704700004801002010B504209F
:1018B00000F098FC10BD000000221021074800F045
:1018C0002FFE00220221064800F02AFE01220821F4
:1018D000024800F025FE00BFFEE7000000080140BE
:1018E000000C01407047000038B50246002300207C
:1018F000009000BF92F82400012801D1022038BDD9
:10190000012082F8240000BF4868072812D210681E
:10191000406B0C79641E04EB84051F24AC40A0438B
:101920000D796D1E05EB85050C68AC4020431468ED
:10193000606327E048680D2812D21068006B0C79AC
:10194000E41F04EB84051F24AC40A0430D79ED1F78
:1019500005EB85050C68AC4020431468206311E05A
:101960001068C06A0C790D3C04EB84051F24AC4060
:10197000A0430D790D3D05EB85050C68AC40204377
:101980001468E06208680A2812D31068C0680C78EE
:101990000A3C04EB44050724AC40A0430D780A3D03
:1019A00005EB45058C68AC4020431468E0600FE00F
:1019B000106800690C7804EB44050724AC40A04390
:1019C0000D7805EB45058C68AC4020431468206118
:1019D0000868102802D00868112827D1174C106811
:1019E000A0421ED11068806800F40000F0B91068B1
:1019F000806840F400001468A0600868102815D1C1
:101A00000F4800680F4CB0FBF4F000EB8000400082
:101A1000009002E00098401E009000980028F9D144
:101A200004E0906A40F020009062012300BF002093
:101A300082F8240000BF184661E70000002401403E
:101A40003000002040420F002DE9F04F89B082465F
:101A50003649DAF80000884264D1354800F090F841
:101A6000344908600846006804F0D7F88046002230
:101A7000314B03F04DFF06460022304B04F0F8F8DE
:101A8000044603F013FF83462A480068B0F5806FD0
:101A900023D9002208212A4800F042FD012210210A
:101AA000274800F03DFD00220221264800F038FDC5
:101AB000584604F0DBF9044622460B4622A101A851
:101AC000FEF764FC01A8FEF759FD84B264232246A8
:101AD00001A9244802F080FC23E0012208211848D3
:101AE00000F01EFD00221021154800F019FD002213
:101AF0000221144800F014FD584604F0B7F90446DA
:101B000022460B4618A101A8FEF740FC01A8FEF7EB
:101B100035FD84B26423224601A9124802F05CFC20
:101B200000BF00BF09B0BDE8F08F000000240140F5
:101B300034000020040000200000B04000005940A4
:101B400000080140000C014028252E316629204262
:101B500061747465727920697320686967680A0D19
:101B600000000000D801002028252E3166292042DF
:101B7000617474657279206973206C6F770A0D0047
:101B800001460868C06C704710B50446206840687C
:101B900000F0200020282FD12068006800F002000B
:101BA000022829D1A06A00F0100018B9A06A40F4F8
:101BB0000070A0622068806800F46020B0F5602F9B
:101BC00013D1207B88B92068406820F0200021686C
:101BD0004860A06A20F48070A062A06A00F480507F
:101BE00018B9A06A40F00100A0622046FFF72CFF60
:101BF0006FF01200216808602068406800F08000E3
:101C000080283BD12068006800F00400042835D10A
:101C1000A06A00F0100018B9A06A40F40050A06259
:101C20002068806800F4E040B0F5E04F0DD02068F7
:101C3000406800F48060D0B92068806800F46020BB
:101C4000B0F5602F13D1207B88B92068406820F060
:101C5000800021684860A06A20F48050A062A06AD9
:101C600000F4807018B9A06A40F00100A06220461C
:101C7000FFF738FE6FF00C002168086020684068AC
:101C800000F0400040280FD12068006800F00100FB
:101C900050B1A06A40F48030A062204600F0A8F85D
:101CA0006FF001002168086010BD00002DE9F041CF
:101CB0000446002700250026A84614B90120BDE8E7
:101CC000F081A06810B1207D00B100BFA06A30B9DA
:101CD0000020E06284F82400204600F08BF82046C3
:101CE000FFF754FD0746A06A00F01000002873D1EA
:101CF000002F71D1A06A20F4885040F00200A06249
:101D0000E16960680843217B40EA41000643A0681E
:101D1000B0F5807F02D0A068012802D14FF4807016
:101D200000E000200543207D012811D1207B38B937
:101D3000A069401E4FF4006141EA4030054307E0CE
:101D4000A06A40F02000A062E06A40F00100E0627A
:101D50002068406820F46940284321684860206872
:101D6000806821490840304321688860A068B0F548
:101D7000807F02D0A068012802D14FF4807000E07B
:101D80000020B0F5807F03D1208A401E4FEA005822
:101D90002068C06A20F4700040EA08002168C86228
:101DA0002068806811490840B04208D10020E062F4
:101DB000A06A20F0020040F00100A06211E0A06AD9
:101DC00020F0020040F01000A062E06A40F0010044
:101DD000E062012705E0FFE7A06A40F01000A06282
:101DE000012738466BE70000FDF7E1FFFE0E1FFFFD
:101DF0007047000010B586B00446002002900390A2
:101E0000049005901849206888422AD100BF1748DD
:101E1000806940F40070154988610846806900F4C3
:101E20000070019000BF00BF00BF0846806940F00D
:101E3000080088610846806900F00800019000BF32
:101E400000BF012002900320039002A9084800F07F
:101E5000D7F900220321122000F0EEFB122000F03F
:101E6000DBFB06B010BD0000002401400010024062
:101E7000000C014070B50446002500BF94F8240012
:101E8000012801D1022070BD012084F8240000BF88
:101E90002046FFF7A9FC0546002D7DD1A06A40F63B
:101EA0000161884340F48070A0623F492068884205
:101EB00008D13E48006800F4702008B9012002E013
:101EC000002000E0012078B1A06A20F48010A06218
:101ED0002068406800F4806000B3A06A20F40050DD
:101EE00040F48050A06219E0A06A40F48010A06223
:101EF0002E49091F2068884203D02B492068884258
:101F000004D12A48006800F4806000E0002028B175
:101F1000A06A20F4005040F48050A062A06A00F44F
:101F2000805020B1E06A20F00600E06201E000206D
:101F3000E06200BF002084F8240000BFC01E2168BA
:101F400008602068406840F02000216848602068F0
:101F5000806800F46020B0F5602F16D11249206827
:101F6000884208D11148006800F4702008B90120A7
:101F700002E0002000E0012038B12068806840F4D1
:101F8000A000216888600CE006E02068806840F4CA
:101F900080102168886004E000BF002084F82400DD
:101FA00000BF28466FE700000028014004240140DC
:101FB00070B50446E06B05682068066894F8401028
:101FC000042088402840002846D006F0040000285D
:101FD00042D02068006800F0200028B9206800681E
:101FE00020F004002168086057492068884201D128
:101FF000042027E0544914312068884201D1402050
:1020000020E0514928312068884201D1001519E0AB
:102010004D493C312068884202D14FF4804011E0A4
:10202000494950312068884202D14FF4802009E0AC
:10203000454964312068884202D14FF4800001E0B4
:102040004FF08060404908394860E06A00287AD043
:102050002046E16A884776E094F8401002208840E4
:102060002840A0B306F0020088B32068006800F0A2
:10207000200040B92068006820F00A00216808604C
:10208000012084F8210030492068884201D10220D3
:1020900028E02D4914312068884201D1202021E018
:1020A000294928312068884201D140151AE0264983
:1020B0003C312068884202D14FF4005012E022499E
:1020C00050312068884203D14FF400300AE017E015
:1020D0001D4964312068884202D14FF4001001E0AC
:1020E0004FF0007018490839486000BF002084F89C
:1020F000200000BFA06A30B32046A16A884722E0D2
:1021000094F84010082088402840E0B106F008000C
:10211000C8B12068006820F00E002168086094F8BB
:10212000401001208840E16B48600120A06384F8E2
:10213000210000BF002084F8200000BF206B10B1F8
:102140002046216B884770BD0800024001460022EE
:1021500009B901207047164B0868C01A1423B0FB58
:10216000F3F08000086412480838C863022081F840
:1021700021000868026843F6F0708243D1E9010348
:102180001843CB6818430B6918434B6918438B6994
:102190001843CB6918430243086802600020886333
:1021A000012081F82100002081F8200000BFD1E744
:1021B0000800024010B50446042C0ED107480078F0
:1021C00018B901200549087007E0002202210448DF
:1021D00000F0A6F900200149087010BD00000020A1
:1021E000000C014010B5044604480068204020B1AE
:1021F000024804602046FFF7DDFF10BD14040140D3
:102200002DE9F84703460022944666E14FF00108A5
:1022100008FA02F4D1F8008008EA0400A0427DD157
:10222000DFF8CCA2D1F80480A8EB0A09D0453AD057
:1022300014DCB8F1030F50D009DCB8F1000F31D035
:10224000B8F1010F1CD0B8F1020F49D120E0B8F16C
:10225000110F18D0B8F1120F42D11EE0B9F5881F46
:1022600025D006DCB9F5803F20D0B9F5801F37D1E5
:102270001AE0B9F5001F18D0B9F5041F30D117E0E6
:10228000D1F80CC02DE0D1F80C8008F1040C28E046
:10229000D1F80C8008F1080C23E0D1F80C8008F18B
:1022A0000C0C1EE000BF00BF00BF00BF00BF00BF9E
:1022B000D1F80880B8F1000F02D14FF0040C0BE008
:1022C000D1F80880B8F1010F03D14FF0080C1C6160
:1022D00002E04FF0080C5C6103E04FF0000C00E0FE
:1022E00000BF00BFFF2801D8984601E003F10408B1
:1022F0004646FF2802D84FEA820803E0A2F1080808
:102300004FEA88084746D6F800804FF00F0909FACF
:1023100007F928EA09080CFA07F900E085E048EA1D
:102320000908C6F80080D1F8048008F08058B8F198
:10233000805F7AD100BFDFF8BC81D8F8188048F000
:102340000108DFF8B091C9F81880C846D8F818809D
:1023500008F00108CDF8008000BF00BF4FEAB9388F
:102360004FEA920958F829504FEA82784FEA1879D3
:102370004FF00F0808FA09F825EA0805DFF8788118
:10238000434502D14FF000080FE0DFF8708143456C
:1023900002D14FF0010808E0DFF86481434502D123
:1023A0004FF0020801E04FF003084FEA82794FEA4C
:1023B000197908FA09F848EA0505DFF848814FEA73
:1023C000920948F82950D1F8048008F48038B8F50B
:1023D000803F0AD1DFF83081D8F8008048EA000851
:1023E000DFF82491C9F8008009E0DFF81C81D8F8F3
:1023F000008028EA0008DFF81091C9F80080D1F8C1
:10240000048008F40038B8F5003F0FD1DFF8F880F9
:1024100008F10408D8F8008048EA0008DFF8E890DE
:1024200009F10409C9F800800EE055E0DFF8D88012
:1024300008F10408D8F8008028EA0008DFF8C890FE
:1024400009F10409C9F80080D1F8048008F4801863
:10245000B8F5801F0ED1DFF8B08008F10808D8F871
:10246000008048EA0008DFF8A09009F10809C9F8DF
:1024700000800DE0DFF8908008F10808D8F80080AF
:1024800028EA0008DFF8809009F10809C9F80080FF
:10249000D1F8048008F40018B8F5001F0ED1DFF859
:1024A000688008F10C08D8F8008048EA0008DFF8D6
:1024B000589009F10C09C9F800800DE0DFF8488058
:1024C00008F10C08D8F8008028EA0008DFF83890F6
:1024D00009F10C09C9F80080521CD1F8008028FAD3
:1024E00002F8B8F1000F7FF491AEBDE8F887000064
:1024F000000011100010024000080140000C0140D3
:1025000000100140080001400004014010B5C268FD
:1025100021EA020302EA010443EA0443036110BD15
:102520000AB1016101E00B040361704701480068D2
:102530007047000024000020034800680349097820
:102540000844014908607047240000202C00002046
:1025500010B50848006840F01000064908600320E4
:1025600000F0A8F80F2000F007F800F02BF800208A
:1025700010BD00000020024070B504460E480078EF
:102580004FF47A71B1FBF0F00C490968B1FBF0F53A
:10259000284600F032FF08B1012070BD102C07D290
:1025A00000222146501E00F047F80548046001E073
:1025B0000120F2E70020F0E72C000020300000208E
:1025C0002800002008B500BF1148806940F00100D4
:1025D0000F4988610846806900F00100009000BF43
:1025E00000BF00BF0846C06940F08050C86108467F
:1025F000C06900F08050009000BF00BF00BF0549D7
:10260000486820F0E06040F08060486000BF08BD8E
:10261000001002400000014001460846002809DB86
:1026200000F01F0301229A4043099B0003F1E023BD
:10263000C3F8002100BF70472DE9F05F80460D46CA
:102640001646002702F058FD074639462A4633460B
:1026500001F00700C0F1070ABAF1040F02D94FF0E8
:10266000040A01E0C0F1070AD14600F1040ABAF1F8
:10267000070F02D24FF0000A01E0A0F1030AD4468E
:102680004FF0010A0AFA09FAAAF1010A0AEA020A53
:102690000AFA0CFA4FF0010B0BFA0CFBABF1010B31
:1026A0000BEA030B4AEA0B042146404602F02CFDDC
:1026B000BDE8F09F00BF00F00702064B19684FF617
:1026C000FF031940044B0B4343EA0221014B1960FD
:1026D00000BF70470CED00E00000FA05F8B50446B5
:1026E00000260025207800F0010000286BD000278C
:1026F0004348C06900F0805070B900BF4048C069CD
:1027000040F080503E49C8610846C06900F08050E2
:10271000009000BF00BF01273A48006800F48070B5
:10272000B0B93848006840F4807036490860FFF757
:10273000FDFE064606E0FFF7F9FE801B642801D97E
:102740000320F8BD2F48006800F480700028F2D004
:102750002B48006A00F440752DB3A08800F4407047
:10276000A84220D02648006A20F44075012026495E
:102770000860002008602248056205F0010090B161
:10278000FFF7D4FE064608E0FFF7D0FE801B41F2BB
:102790008831884201D90320D3E71948006A00F044
:1027A00002000028F0D01648006A20F440706168EA
:1027B000084313490862012F04D10846C06920F07C
:1027C0008050C86100BF207800F00200022807D1C5
:1027D0000B48406820F44040A1680843084948601D
:1027E000207800F01000102807D10548406820F438
:1027F0008000E1680843024948600020A1E700002A
:1028000000100240007000404004424270B504468F
:102810000D460CB9012070BD5A48006800F0070051
:10282000A8420ED25748006820F0070028435549B7
:1028300008600846006800F00700A84201D00120A7
:10284000E9E7207800F0020002281DD1207800F08E
:102850000400042805D14C48406840F4E0604A492F
:102860004860207800F00800082805D146484068F4
:1028700040F46050444948604348406820F0F0000C
:10288000A168084340494860207800F0010078B30F
:102890006068012806D13C48006800F4003090B917
:1028A0000120B8E76068022806D13748006800F0C8
:1028B000007040B90120AEE73348006800F0020024
:1028C00008B90120A7E73048406820F0030061689C
:1028D00008432D494860FFF729FE064609E0FFF747
:1028E00025FE801B41F28831884202D9032092E7FD
:1028F00007E02548406800F00C006168B0EB810FEC
:10290000EDD12048006800F00700A8420ED91D480C
:10291000006820F0070028431A490860084600684C
:1029200000F00700A84201D0012074E7207800F0F1
:102930000400042807D11448406820F4E060E168EE
:10294000084311494860207800F00800082808D1A1
:102950000D48406820F46050216940EAC1000A49EE
:10296000486000F03FF808494968C1F30311074A7D
:10297000515CC8400649086006480068FFF7FCFD46
:10298000002048E700200240001002405C5F000881
:102990003000002028000020014800687047000037
:1029A0003000002000B5FFF7F7FF04494968C1F384
:1029B0000221034A515CC84000BD000000100240E3
:1029C0006C5F000800B5FFF7E7FF04494968C1F3F1
:1029D000C221034A515CC84000BD00000010024003
:1029E0006C5F0008F0B585B00FF26C0C9CE8E0104D
:1029F00001A8A0E8E0101CA52D6800950021002288
:102A0000002300240020194D696801F00C05F5B180
:102A1000042D02D0082D19D101E0154819E001ADAF
:102A2000C1F38346AC5D01F4803555B10F4D6D683F
:102A3000C5F340451DF805200D4D6543B5FBF2F388
:102A400002E00C4D04FB05F3184602E000BF084805
:102A500000BF00BF05B0F0BD02030405060708096A
:102A60000A0B0C0D0E0F10100102000000100240A6
:102A700000127A0000093D00F8B504460CB90120A7
:102A8000F8BD207800F00100002878D0F8484068B0
:102A900000F00C0004280CD0F548406800F00C0051
:102AA000082811D1F248406800F48030B0F5803F2A
:102AB0000AD1EF48006800F4003000285FD0606859
:102AC00000285CD10120DBE700BF6068B0F5803FE3
:102AD00006D1E748006840F48030E549086028E006
:102AE000606858B9E248006820F48030E049086026
:102AF0000846006820F4802008601AE06068B0F59D
:102B0000A02F0BD1DA48006840F48020D849086033
:102B10000846006840F4803008600AE0D448006845
:102B200020F48030D24908600846006820F48020F4
:102B3000086000BF606888B1FFF7F8FC054606E052
:102B4000FFF7F4FC401B642801D9032098E7C8482C
:102B5000006800F400300028F2D010E0FFF7E6FC37
:102B6000054606E0FFF7E2FC401B642801D903207C
:102B700086E7BF48006800F400300028F2D12078D2
:102B800000F00200022857D1B948406800F00C005C
:102B900050B1B748406800F00C00082818D1B4487C
:102BA000406800F4803098B9B148006800F0020035
:102BB00020B12069012801D0012061E7AC480068FC
:102BC00020F0F800616940EAC100A949086033E0DB
:102BD0002069E8B10120A7490860FFF7A7FC054676
:102BE00006E0FFF7A3FC401B022801D9032047E7BA
:102BF0009F48006800F002000028F2D09C4800685E
:102C000020F0F800616940EAC1009949086013E0CA
:102C1000002098490860FFF789FC054606E0FFF7A9
:102C200085FC401B022801D9032029E79048006851
:102C300000F002000028F2D1207800F008000828F7
:102C40002DD1A069B8B101208B490860FFF76EFC57
:102C5000054606E0FFF76AFC401B022801D9032065
:102C60000EE78348406A00F002000028F2D00120FD
:102C700001F046FE13E000207F490860FFF756FC94
:102C8000054606E0FFF752FC401B022801D903204D
:102C9000F6E67748406A00F002000028F2D120787A
:102CA00000F00400042873D100277148C06900F0C7
:102CB000805070B900BF6E48C06940F080506C49C8
:102CC000C8610846C06900F08050009000BF00BF96
:102CD00001276A48006800F48070B0B9674800684E
:102CE00040F4807065490860FFF720FC054606E067
:102CF000FFF71CFC401B642801D90320C0E65F4895
:102D0000006800F480700028F2D000BFE06801285D
:102D100006D15748006A40F001005549086227E093
:102D2000E06858B95248006A20F001005049086232
:102D30000846006A20F00400086219E0E0680528EF
:102D40000BD14B48006A40F004004949086208462C
:102D5000006A40F0010008620AE04548006A20F07D
:102D60000100434908620846006A20F00400086236
:102D700000BFE068A0B1FFF7D9FB054609E0FFF707
:102D8000D5FB401B41F28831884202D9032077E607
:102D900022E03748006A00F002000028EFD012E07D
:102DA000FFF7C4FB054608E0FFF7C0FB401B41F2FC
:102DB0008831884201D9032062E62D48006A00F07C
:102DC00002000028F0D1012F05D12948C06920F068
:102DD00080502749C86100BFE069C8B324484068F3
:102DE00000F00C00082860D0E069022848D10020DB
:102DF00020490866FFF79AFB054606E0FFF796FBB9
:102E0000401B022801D903203AE61948006800F067
:102E100000700028F2D1206AB0F5803F07D1144835
:102E2000406820F40030A168084311494860D4E9A3
:102E3000080108430E49496821F4741108430C49FC
:102E4000486001200B490866FFF770FB054607E064
:102E50003DE0FFF76BFB401B022801D903200FE682
:102E60000348006800F000700028F2D02FE0000056
:102E700000100240000042428004424200700040C4
:102E8000002014490866FFF751FB054606E0FFF7EE
:102E90004DFB401B022801D90320F1E50E480068D4
:102EA00000F000700028F2D111E0E069012800D1A3
:102EB000E6E50948466806F48031206A814204D17B
:102EC00006F47011606A814201D00120D8E500202B
:102ED000D6E50000000042420010024010B5044652
:102EE0000CB9012010BD606A38B96068B0F5827F06
:102EF00000D105E00021E16102E000212161616172
:102F00000021A16294F8510028B9002084F85000F3
:102F1000204600F043F8022084F851002068006841
:102F200020F0400021680860A08800F482702189A8
:102F300001F404410843A18901F400610843217CA4
:102F400001F002010843217D01F001010843218BBA
:102F500001F400710843217F01F03801084320216A
:102F6000095D01F080010843218D01F400510843FF
:102F7000216808600421A06901EA104021684860C6
:102F80002068C06920F400602168C8610020606585
:102F9000012084F851000020A4E7000010B586B09D
:102FA0000446002002900390049005902749206871
:102FB000884248D100BF2648806940F480502449A7
:102FC00088610846806900F48050019000BF00BF0E
:102FD00000BF0846806940F00400886108468069A7
:102FE00000F00400019000BF00BFA020029002206A
:102FF00003900320059002A91648FFF701F940202D
:10300000029000200390049002A91248FFF7F8F8FC
:103010001148124908600020486000210F48816073
:103020008021C16000210161416120218161002175
:10303000C161FFF78BF808B1FEF73EFC00BF0748FF
:10304000E064446200BF06B010BD000000300140E3
:1030500000100240000801401C000240BC0000209B
:103060002DE9F8430446884616461D464FF00009F0
:103070006068B0F5827F0DD1A06858B9042084F84B
:1030800051003346424641462046009500F0A0F8E4
:10309000BDE8F88300BF94F85000012801D1022058
:1030A000F6E7012084F8500000BFFFF73FFA07461B
:1030B00094F85100012802D04FF002097EE0B8F1E7
:1030C000000F00D016B94FF0010977E0042084F812
:1030D000510000206065C4F83880A687E687206329
:1030E000A086E08620646064A068B0F5004F0BD134
:1030F0002068006820F040002168086020680068AF
:1031000020F48040216808602068006800F04000DA
:10311000402805D02068006840F040002168086021
:10312000E068F8B91AE02068806800F0010050B14A
:103130002068007BA16B0870A06B401CA063E08F2F
:10314000401EE0870AE0FFF7F1F9C01BA84201D357
:10315000681C00B915B94FF003092FE0E08F002873
:10316000E1D11EE01AE02068806800F0010050B153
:103170002068C068A16B0880A06B801CA063E08FF2
:10318000401EE0870AE0FFF7D1F9C01BA84201D337
:10319000681C00B915B94FF003090FE0E08F002853
:1031A000E1D13A462946204601F0BEFB08B1202075
:1031B0006065606D08B14FF0010900BF012084F81F
:1031C000510000BF002084F8500000BF48465FE770
:1031D0002DE9FF5F0446884691461D460E9E01205C
:1031E00002900020019000BF94F85000012803D104
:1031F000022004B0BDE8F09F012084F8500000BF19
:10320000FFF794F9074694F851B060680390AA4616
:10321000BBF1010F0BD00398B0F5827F04D1A068F9
:1032200010B9BBF1040F02D002200190DBE0B8F12D
:10323000000F03D0B9F1000F00D015B901200190A3
:10324000D1E094F85100042802D0052084F8510000
:1032500000206065C4F83890E587A587C4F8308001
:10326000E586A586206460642068006800F0400060
:10327000402805D02068006840F0400021680860C0
:10328000E068B0F5006F4AD1606810B1BAF1010F83
:1032900009D1206B00882168C860206B801C2063E6
:1032A000E08E401EE08633E02068806800F0020077
:1032B000022810D1E08E70B1029801280BD1206B4A
:1032C00000882168C860206B801C2063E08E401E4F
:1032D000E086002002902068806800F0010068B15C
:1032E000E08F58B12068C068A16B0880A06B801C7B
:1032F000A063E08F401EE08701200290FFF716F9DF
:10330000C01BB04204D3701C10B1032001906AE0CE
:10331000E08E0028C8D1E08F0028C5D14AE060685F
:1033200010B1BAF1010F09D1206B00782168087340
:10333000206B401C2063E08E401EE08634E0206855
:10334000806800F00200022810D1E08E70B102986F
:1033500001280BD1206B007821680873206B401C7A
:103360002063E08E401EE086002002902068806886
:1033700000F0010068B1E08F58B12068C068A16B0F
:103380000870A06B401CA063E08F401EE087012006
:103390000290FFF7CBF8C01BB04201D3701C00B9FC
:1033A00016B9032001901EE0E08E0028C7D1E08FFF
:1033B0000028C4D13A463146204601F0F1FA20B146
:1033C00001200190202060650DE0A06850B900BF89
:1033D000002000902068C0680090206880680090FD
:1033E00000BF00BF00BF012084F8510000BF0020D3
:1033F00084F8500000BF0198FBE670B504462546EE
:10340000681EB0F1807F01D301200FE0681E4FF0ED
:10341000E02148610F214FF0FF3001F075FE0020E0
:103420004FF0E021886107200861002070BD7047DF
:10343000704710B50346002200BF93F83C000128F6
:1034400001D1022010BD012083F83C0000BF22F012
:10345000FF00CC6840EA040222F440708C6840EA25
:10346000040222F480604C6840EA040222F4006006
:103470000C6840EA040222F480500C6940EA04021D
:1034800022F400504C6940EA040222F48040CC69E6
:1034900040EA04021868426400BF002083F83C0040
:1034A00000BF00BFCEE7000030B502460B4600BFAC
:1034B00092F83C00012801D1022030BD012082F8A1
:1034C0003C0000BF022082F83D001068446810688C
:1034D000816824F0700418680443106844600E4D3D
:1034E0001068A84207D01068B0F1804F03D00B4D90
:1034F0001068A84205D121F0800158680143106886
:103500008160012082F83D0000BF002082F83C006D
:1035100000BF00BFD1E70000002C014000040040C4
:1035200010B504460CB9012010BD94F83D0028B92F
:10353000002084F83C00204600F026F8022084F8A1
:103540003D00211D206801F013FB012084F8460096
:1035500000BF84F83E0001213F2001554020015565
:103560004120015500BF00BF012084F842004320E4
:103570000155442001554520015500BF012084F824
:103580003D000020D0E7000038B504461649206809
:1035900088420DD100BF1548806940F4006013498E
:1035A00088610846806900F40060009000BF19E05F
:1035B0000F492068884215D100BF0C48C06940F00F
:1035C00002000A49C8610846C06900F00200009084
:1035D00000BF00BF002202211D20FFF72DF81D2093
:1035E000FFF71AF838BD0000002C0140001002401F
:1035F00000040040014691F83D00012801D001205F
:103600007047022081F83D000868C06840F0010062
:103610000B68D860104B0868984207D00868B0F172
:10362000804F03D00D4B086898420CD10868806821
:1036300000F00702062A0CD00868006840F001007C
:103640000B68186005E00868006840F001000B682E
:1036500018600020D4E70000002C01400004004066
:103660002DE9F04104460D4600BF94F83C000128C6
:1036700002D10220BDE8F081012084F83C0000BFA7
:10368000022084F83D002068866826F0770626F43C
:103690007F46206886602868502833D00CDC2028BC
:1036A00050D004DC00284BD0102851D149E03028FC
:1036B00049D040284CD139E060282DD0702807D05F
:1036C000B0F5805F03D0B0F5005F41D10DE040E080
:1036D000D5E902136A68206801F08DFA20688668CF
:1036E00046F077062068866033E0D5E902136A6801
:1036F000206801F080FA2068806840F480402168EA
:10370000886026E0EA686968206801F045FB50217E
:10371000206801F07BFA1CE0EA686968206801F023
:103720007DFB6021206801F071FA12E0EA686968A7
:10373000206801F031FB4021206801F067FA08E0C1
:1037400000BF00BF00BF2968206801F05FFA00E0F9
:1037500000BF00BF012084F83D0000BF002084F8B6
:103760003C0000BF00BF85E72DE9F0478246524884
:10377000824520D19AF81C000228FAD14F480078DF
:10378000D0B90421504600F085FD4D490860012064
:103790004A49087000BFDAF80000006A20F0A00073
:1037A000DAF800100862DAF80000006A40F0200041
:1037B000DAF8001008627DE040480078012879D1ED
:1037C0000421504600F066FD3E4908600020DAF80A
:1037D000001048623B48006839490968884207D9A7
:1037E0003848006836490968401A374908600FE0D0
:1037F0003348006833490968884209D9304800686D
:103800004FF6FF71081A2F49096808442E490860CD
:103810002D48006802F018FA06462C4A2C4B02F09C
:1038200027FA044600224FF0804302F071F88046E8
:1038300002F0C6F927490870002020490870264880
:103840000078012811D125480068B0F5806F0CD9A7
:1038500023480068012808D102212248FEF756FEBD
:103860001C48007801F088FF0CE01B48007838B154
:103870001A480068B0F5806F02D91948006808B985
:1038800001F010F900BFDAF80000006A20F0A00093
:10389000DAF800100862DAF80000006ADAF80010BE
:1038A000086200BF04480068C06820F004000249B4
:1038B0000968C860BDE8F0874801002014000020B6
:1038C000080000200C000020100000209CC420B044
:1038D0007268A13F150000200000002004000020B5
:1038E00018000020000C01402DE9F04104460D466F
:1038F000164600BF94F83C00012802D10220BDE822
:10390000F081012084F83C0000BF96B9EB68D5E94E
:103910000012206801F054FA2068806920F00C0041
:103920002168886120688069A968084321688861E6
:103930003DE0042E13D1EB68D5E90012206801F0B8
:1039400081FA2068806920F44060216888612068DD
:103950008069A96840EA01202168886127E0082E73
:1039600012D1EB68D5E90012206801F088FA2068CE
:10397000C06920F00C002168C8612068C069A9688E
:1039800008432168C86112E0EB68D5E9001220689D
:1039900001F091FA2068C06920F440602168C86194
:1039A0002068C069A96840EA01202168C86100BF99
:1039B000002084F83C0000BF00BFA0E710B504461B
:1039C0000CB9012010BD94F83D0028B9002084F8FE
:1039D0003C00204600F026F8022084F83D00211D1E
:1039E000206801F0C5F8012084F8460000BF84F883
:1039F0003E0001213F200155402001554120015545
:103A000000BF00BF012084F842004320015544203C
:103A100001554520015500BF012084F83D000020DC
:103A2000D0E7000010B586B0044600200290039055
:103A3000049005902068B0F1804F2BD100BF16484C
:103A4000C06940F001001449C8610846C06900F02F
:103A50000100019000BF00BF00BF0846806940F030
:103A6000040088610846806900F00400019000BFEE
:103A700000BF0220029000200390049002A9074892
:103A8000FEF7BEFB002204211C20FEF7D5FD1C2002
:103A9000FEF7C2FD06B010BD001002400008014054
:103AA0002DE9F04104460D4615B994F83E000BE0AF
:103AB000042D02D13F20005D06E0082D02D14020F8
:103AC000005D01E04120005D074615B994F8420011
:103AD0000BE0042D02D14320005D06E0082D02D149
:103AE0004420005D01E04520005D8046012F02D1A9
:103AF000B8F1010F02D00120BDE8F0811DB902200C
:103B000084F83E000EE0042D03D102213F20015530
:103B100008E0082D03D102214020015502E00221D6
:103B2000412001551DB9022084F842000EE0042D09
:103B300003D102214320015508E0082D03D10221C1
:103B40004420015502E002214520015535B1042DE4
:103B50000BD0082D10D00C2D1CD114E02068C068AB
:103B600040F002002168C86015E02068C06840F09D
:103B700004002168C8600EE02068C06840F00800BA
:103B80002168C86007E02068C06840F01000216824
:103B9000C86000E000BF00BF01222946206801F094
:103BA00019F810492068884207D02068B0F1804F8A
:103BB00003D00D49206888420CD12068806800F04D
:103BC0000706062E0CD02068006840F0010021682E
:103BD000086005E02068006840F001002168086086
:103BE000002089E7002C01400004004010B5044685
:103BF00020680069C0F34000D8B12068C068C0F3F5
:103C00004000B0B16FF00200216808610120207708
:103C10002068806900F0030018B12046FFF7A4FD7A
:103C200005E0204600F00EF9204600F057FA00208B
:103C3000207720680069C0F38000D8B12068C06890
:103C4000C0F38000B0B16FF0040021680861022069
:103C500020772068806900F4407018B12046FFF793
:103C600083FD05E0204600F0EDF8204600F036FA2E
:103C70000020207720680069C0F3C000D8B1206818
:103C8000C068C0F3C000B0B16FF0080021680861DF
:103C9000042020772068C06900F0030018B1204696
:103CA000FFF762FD05E0204600F0CCF8204600F06A
:103CB00015FA0020207720680069C0F30010D8B101
:103CC0002068C068C0F30010B0B16FF01000216828
:103CD0000861082020772068C06900F4407018B19E
:103CE0002046FFF741FD05E0204600F0ABF82046F6
:103CF00000F0F4F9002020772068006900F001004E
:103D000058B12068C06800F0010030B16FF00100C8
:103D100021680861204600F047FA20680069C0F376
:103D2000C01058B12068C068C0F3C01030B16FF047
:103D30008000216808612046FFF779FB2068006950
:103D4000C0F3801058B12068C068C0F3801030B153
:103D50006FF0400021680861204600F0B4FA206846
:103D60000069C0F3401058B12068C068C0F340102B
:103D700030B16FF02000216808612046FFF758FB42
:103D800010BD000010B586B00446002002900390DC
:103D9000049005900E492068884217D100BF0D4855
:103DA000806940F004000B4988610846806900F092
:103DB0000400019000BF00BF4FF430600290022069
:103DC0000390059002A90448FEF71AFA06B010BD48
:103DD000002C0140001002400008014070B504466C
:103DE0000E46154600BF94F83C00012801D1022080
:103DF00070BD012084F83C0000BF35B1042D09D00E
:103E0000082D0CD00C2D14D10EE03146206800F0A6
:103E100007FF0FE03146206800F032FF0AE031462C
:103E2000206800F061FF05E03146206800F090FF57
:103E300000E000BF00BF00BF002084F83C0000BFCE
:103E400000BFD5E7704710B504460CB9012010BD7E
:103E500094F83D0028B9002084F83C00204600F08A
:103E600025F8022084F83D00211D206800F080FE26
:103E7000012084F8460000BF84F83E0001213F2065
:103E80000155402001554120015500BF00BF0120D0
:103E900084F8420043200155442001554520015536
:103EA00000BF012084F83D000020D0E770470000EB
:103EB00070B504460D4615B994F83E000BE0042D8C
:103EC00002D13F20005D06E0082D02D14020005DB8
:103ED00001E04120005D012801D0012070BD1DB925
:103EE000022084F83E000EE0042D03D102213F2081
:103EF000015508E0082D03D102214020015502E0C0
:103F000002214120015501222946206800F062FE6D
:103F100017492068884201D1012000E0002028B123
:103F20002068406C40F400402168486410492068D3
:103F3000884207D02068B0F1804F03D00D49206837
:103F400088420CD12068806800F00706062E0CD04D
:103F50002068006840F001002168086005E02068E2
:103F6000006840F00100216808600020B6E700000A
:103F7000002C01400004004070B504460D46164672
:103F800000BF94F83C00012801D1022070BD01203F
:103F900084F83C0000BF36B1042E1BD0082E31D06F
:103FA0000C2E5ED145E02946206800F039FE2068DD
:103FB000806940F00800216888612068806920F0ED
:103FC00004002168886120688069296908432168A4
:103FD000886147E02946206800F052FE2068806929
:103FE00040F40060216888612068806920F4806066
:103FF0002168886120688069296940EA0120216878
:1040000088612FE02946206800F06EFE2068C069B4
:1040100040F008002168C8612068C06920F00400F1
:104020002168C8612068C069296908432168C8619E
:1040300018E02946206800F08BFE2068C06940F433
:1040400000602168C8612068C06920F48060216830
:10405000C8612068C069296940EA01202168C861F7
:1040600000E000BF00BF00BF002084F83C0000BF9C
:1040700000BF8BE710B504460CB9012010BD94F8C1
:104080003D0028B9002084F83C00204600F025F8C7
:10409000022084F83D00211D206800F069FD012008
:1040A00084F8460000BF84F83E0001213F200155FE
:1040B000402001554120015500BF00BF012084F878
:1040C000420043200155442001554520015500BFC1
:1040D000012084F83D000020D0E7704770470000C1
:1040E00070B504460D4615B994F83E000BE0042D5A
:1040F00002D13F20005D06E0082D02D14020005D86
:1041000001E04120005D012801D0012070BD1DB9F2
:10411000022084F83E000EE0042D03D102213F204E
:10412000015508E0082D03D102214020015502E08D
:1041300002214120015501222946206800F04AFD54
:1041400017492068884201D1012000E0002028B1F1
:104150002068406C40F400402168486410492068A1
:10416000884207D02068B0F1804F03D00D49206805
:1041700088420CD12068806800F00706062E0CD01B
:104180002068006840F001002168086005E02068B0
:10419000006840F00100216808600020B6E70000D8
:1041A000002C01400004004030B59BB005464FF4A0
:1041B00000412548FEF7AAF92448FDF75BFE08B147
:1041C000FDF77AFB00224FF400511F48FEF7A8F9D3
:1041D000642301221AA91E48FEF742FF012251035F
:1041E0001948FEF79DF900224FF480411648FEF76A
:1041F00097F96423012219A91548FEF731FF01221E
:1042000091031148FEF78CF99DF864309DF8680021
:10421000420010A16846FCF7B9F80446A2B2642334
:1042200069461A4800F0D8F89DF864000A2803DAB5
:1042300001201749086002E000201549086000F0DD
:1042400035F91BB030BD0000000C014034000020E7
:10425000640000202D2D2D2D2D2D2D2D2D2D2D2DBE
:104260002D2D2D2D0A0D576561746865722025640A
:1042700020646567726565730A0D4C696768742010
:1042800076616C75653A2025640A0D00D80100201E
:10429000180000200246002031B1042907D0082967
:1042A00008D00C290CD108E01368586B09E013689A
:1042B000986B06E01368D86B03E01368186C00E095
:1042C00000BF00BF7047704710B504460CB901200D
:1042D00010BDA06900B100E000BF94F83D0028B90E
:1042E000002084F83C00204600F028F8242084F8C0
:1042F0003D002068C06820F400502168C860204656
:1043000000F030FE2068006920F4904021680861C8
:104310002068406920F02A00216848612068C06850
:1043200040F400502168C86000202064202084F8F8
:104330003D0084F83E000020CAE7000010B586B0BA
:104340000446002002900390049005901E492068C6
:10435000884236D100BF1D48806940F480401B4927
:1043600088610846806900F48040019000BF00BF6A
:1043700000BF0846806940F00800886108468069EF
:1043800000F00800019000BF00BF40200290022012
:1043900003900320059002A90D48FDF731FF80200E
:1043A000029000200390049002A90948FDF728FF1D
:1043B00000BF0849486840F0E06040F004004860F1
:1043C00000BF06B010BD00000038014000100240E0
:1043D000000C0140000001402DE9F84F04460E4654
:1043E000174699464FF0000A94F83D0020285AD10C
:1043F00006B117B90120BDE8F88F00BF94F83C0062
:10440000012801D10220F6E7012084F83C0000BF1A
:1044100000202064212084F83D00FEF787F88246C2
:10442000A784E784A068B0F5805F04D1206910B943
:104430000025B04602E035464FF0000800BF0020DE
:1044400084F83C0000BF1BE0534600228021204638
:10445000CDF8009000F004FE08B10320CBE745B989
:10446000B8F80000C0F308002168486008F10208AD
:1044700003E02878216848606D1CE08C401EE084D1
:10448000E08C0028E0D15346002240212046CDF8A0
:10449000009000F0E5FD08B10320ACE7202084F88F
:1044A0003D000020A7E70220A5E7000010B501228B
:1044B00004210A48FEF734F80A20FDF7E9F9002242
:1044C00004210648FEF72CF805480068C06840F053
:1044D000040003490968C86010BD0000000C0140D9
:1044E0004801002000BFFEE70EB5002000900190BB
:1044F000029012481249086000211148816001733E
:1045000001754FF40021C16100200D49486001216F
:104510000B480161FDF7CAFB08B1FDF7CDF9082092
:104520000090012001900520029069460448FDF7A3
:10453000DBF908B1FDF7C0F90EBD00000024014011
:104540003400002008B500BF0A48406940F001006F
:10455000084948610846406900F00100009000BF2A
:1045600000BF002211460C20FEF766F80C20FEF773
:1045700053F808BD0010024000B585B0002001903E
:1045800002900390049000BF3048806940F0200002
:104590002E4988610846806900F02000009000BF25
:1045A00000BF00BF0846806940F0040088610846EB
:1045B000806900F00400009000BF00BF00BF084603
:1045C000806940F0080088610846806900F00800B2
:1045D000009000BF00BF002247F218411C48FDF7C1
:1045E0009FFF00224FF606411A48FDF799FF04206D
:1045F0000190194802900220039001A91448FDF788
:10460000FFFD47F218400190012002900020039026
:104610000220049001A90E48FDF7F2FD4FF6064076
:10462000019001200290002003900220049001A933
:104630000848FDF7E5FD002201210820FDF7FCFFF9
:104640000820FDF7E9FF05B000BD000000100240A2
:1046500000080140000C01400000111010B50E4888
:104660000E4908604FF48270486000210B48816059
:10467000C160016141614FF4007181611021C1612C
:1046800000210162416281620A21C162FEF726FCBB
:1046900008B1FDF711F910BD0030014064000020A1
:1046A00000B595B0002011901290139014900F90C7
:1046B00010901C2108A8FBF780FF20216846FBF71B
:1046C0007CFF3748374908600020486000213548A2
:1046D000816041F63F71C1600021016141618161EA
:1046E000FEF71EFF08B1FDF7E7F84FF48050119078
:1046F00011A92C48FEF7B4FF08B1FDF7DDF82948F1
:10470000FFF7B8FC08B1FDF7D7F82648FFF79BFB89
:1047100008B1FDF7D1F800200F9010900FA92148A3
:10472000FEF7C2FE08B1FDF7C7F860200890002030
:1047300009900A900B900C900D900E90002208A901
:104740001848FFF719FC08B1FDF7B6F8042208A9CC
:104750001448FFF711FC08B1FDF7AEF830200890BF
:104760000C2208A90F48FFF739FB08B1FDF7A4F8A0
:104770000020009001900290039004904FF40050AC
:1047800005900020079069460648FEF752FE08B1E2
:10479000FDF792F80348FFF7F5FA15B000BD0000E9
:1047A000002C01400001002000B587B000200590DA
:1047B000069001900290039004904FF080401649BB
:1047C0000860072048600021134881604FF6FE71A1
:1047D000C160002101618161FFF7F0F808B1FDF7C8
:1047E0006BF800200590069005A90B48FEF75CFECB
:1047F00008B1FDF761F8002001900120029000202F
:1048000003900490042201A90348FFF76DF808B152
:10481000FDF752F807B000BD4801002000B587B091
:104820000020039004900590069001900290154896
:10483000154908607C2048600021134881604FF6CC
:10484000FF11C1600021016180218161FEF768FED6
:1048500008B1FDF731F84FF48050039003A90A48DE
:10486000FEF7FEFE08B1FDF727F82020019080201A
:10487000029001A90448FEF717FE08B1FDF71CF8E5
:1048800007B000BD000400409001002010B50B48A7
:104890000B4908604FF416504860002108488160B9
:1048A000C16001610821416100218161C161FFF79F
:1048B0000BFD08B1FDF700F810BD00000038014005
:1048C000D801002000BFFEE710B5002005490860B0
:1048D000091D086000F097FD03A20021084600F0C2
:1048E000D7FD10BD342C01404D6F76696E67206690
:1048F0006F7277617264000000BFFEE770470000CE
:1049000008B508490968C9084FF47A72B1FBF2F199
:104910004143009100BF00BF00994A1E0092002948
:10492000F9D108BD30000020F8B504460E46154602
:104930006068B0F5827F0DD1A068B0F5004F03D05C
:10494000A068B0F5806F05D12068006820F04000B5
:10495000216808606068B0F5827F11D1A068B0F569
:10496000806F0DD13346002201212046009500F0D2
:104970002BF898B1606D40F0200060650320F8BD11
:104980003346002280212046009500F01DF828B112
:10499000606D40F0200060650320F0E70020EEE746
:1049A000F8B504460D4616462B46002280212046C7
:1049B000009600F009F828B1606D40F020006065B5
:1049C0000320F8BD0020FCE72DE9F84F04460D4612
:1049D00090461E46DDF82890FDF7A8FDA0EB0900E3
:1049E000371AFDF7A3FD82462C480068C0F3CB3090
:1049F0007843009045E0701C002842D0FDF796FDFA
:104A0000A0EB0A00B84200D2A7BB2068406820F0A3
:104A1000E000216848606068B0F5827F0DD1A06831
:104A2000B0F5004F03D0A068B0F5806F05D12068C5
:104A3000006820F0400021680860A06AB0F5005FBF
:104A40000DD100BF2068006820F400502168086084
:104A50002068006840F400502168086000BF012011
:104A600084F8510000BF002084F8500000BF0320EC
:104A7000BDE8F88FFFE7009800B900270098401EB6
:104A80000090206880682840A84201D1012000E001
:104A900000204045AFD10020EAE7000030000020B0
:104AA0007047000010B541F63F7006490860091DC7
:104AB000086000F0A8FC04A20021084600F0E8FC11
:104AC00010BD0000342C014053746F707065640099
:104AD00010B5FDF731FD10BD00B593B0282109A830
:104AE000FBF76BFD142104A8FBF767FD0020009085
:104AF0000190029003900220099001200D90102057
:104B00000E900020109009A8FDF7B6FF08B1FCF741
:104B1000D3FE0F2004900020059006904FF4806093
:104B2000079000200890002104A8FDF76FFE08B14F
:104B3000FCF7C2FE02200090002002906846FDF7BC
:104B4000CDFD08B1FCF7B8FE13B000BD7047000002
:104B500010B50248FFF74AF810BD000048010020D8
:104B600010B50248FFF742F810BD00009001002088
:104B700010B50268154B984205D0B0F1804F02D0B5
:104B8000134B984203D122F070024B681A430F4B2B
:104B9000984205D0B0F1804F02D00D4B984203D11E
:104BA00022F44072CB681A4322F080034C6943EA36
:104BB000040202608B68C3620B688362034B9842F5
:104BC00001D10B6903630123436110BD002C014037
:104BD0000004004030B501F01F05012404FA05F37C
:104BE000046A9C430462046A01F01F0502FA05F599
:104BF0002C43046230BD30B50C46816821F47F41FE
:104C000042EA032525432943816030BD0A46816875
:104C100021F0700142F007031943816070470000E2
:104C200030B5056A25F001050562026A43688469AA
:104C300024F0700424F003040D682C4322F00202D7
:104C40008D682A430D4DA84206D100BF22F008020C
:104C5000CD682A4322F00402084DA84207D123F46C
:104C6000807323F400734D692B438D692B4343609C
:104C700084614D684563026230BD0000002C014034
:104C800030B5056A25F010050562026A436884693B
:104C900024F4E04424F440740D6844EA052422F02E
:104CA00020028D6842EA05120E4DA84207D100BFCE
:104CB00022F08002CD6842EA051222F04002094D3E
:104CC000A84209D123F4806323F400634D6943EAC9
:104CD00085038D6943EA8503436084614D6885637C
:104CE000026230BD002C014030B5056A25F48075A4
:104CF0000562026A4368C46924F0700424F0030466
:104D00000D682C4322F400728D6842EA05220F4D93
:104D1000A84207D100BF22F40062CD6842EA052212
:104D200022F48062094DA84209D123F4805323F470
:104D300000534D6943EA05138D6943EA0513436047
:104D4000C4614D68C563026230BD0000002C0140A3
:104D500030B5056A25F480550562036A4468C26966
:104D600022F4E04222F440720D6842EA052223F464
:104D700000538D6843EA0533064DA84204D124F45C
:104D800080444D6944EA85144460C2614D680564FD
:104D9000036230BD002C014030B50B461446026A58
:104DA000056A25F001050562816921F0F00141EAFB
:104DB000041122F00A021A438161026230BD000030
:104DC00070B50C461546066A26F001060662816932
:104DD000026A104EB04205D0B0F1804F02D00E4EA4
:104DE000B04201D1012600E000261EB121F00301EE
:104DF000294301E041F0010121F0F001F02606EA2B
:104E00000316314322F00A0204F00A06324381619C
:104E1000026270BD002C01400004004030B50B461A
:104E20001446056A25F0100505628169026A21F4BD
:104E3000704141EA043122F0A00242EA031281618A
:104E4000026230BD70B50C461546066A26F01006A3
:104E500006628169026A21F4407141EA052121F468
:104E600070414FF4704606EA0336314322F0A00247
:104E7000A02606EA041632438161026270BD70B555
:104E80000C461546066A26F480760662C169026AF7
:104E900021F00301294321F0F001F02606EA031670
:104EA000314322F400724FF4007606EA04263243BE
:104EB000C161026270BD70B50C461546066A26F4E3
:104EC00080560662C169026A21F4407141EA0521F7
:104ED00021F470414FF4704606EA0336314322F460
:104EE00000524FF4005606EA04363243C1610262B2
:104EF00070BD000010B541F63F70074908604FF4DF
:104F00007A60091D086000F07EFA04A200210846BC
:104F100000F0BEFA10BD0000342C01405475726ED2
:104F2000696E67206C6566740000000010B54FF470
:104F30007A600749086041F63F70091D086000F07B
:104F400062FA04A20021084600F0A2FA10BD000097
:104F5000342C01405475726E696E672072696768FF
:104F60007400000070B504462168096921F44051BD
:104F7000E2681143226811612269A16811436269E4
:104F800041EA02052168C96841F20C629143294354
:104F90002268D1602168496921F44071A2691143F6
:104FA000226851612D4A2168914202D1FDF70AFD24
:104FB00001E0FDF7F7FC00EBC00101EB00116268B6
:104FC0009200B1FBF2F100EBC00202EB0012636849
:104FD0009B00B2FBF3F26423B2FBF3F202EBC203D9
:104FE00003EB0212A1EB8201322202EB01116422D7
:104FF000B1FBF2F101F0F00100EBC00202EB001294
:1050000063689B00B2FBF3F26423B2FBF3F201EBA3
:10501000021200EBC00101EB001163689B00B1FBC1
:10502000F3F100EBC00303EB00136668B600B3FBBB
:10503000F6F36426B3FBF6F303EBC30606EB0313A8
:10504000A1EB8301322303EB01116423B1FBF3F1E4
:1050500001F00F0111442268916070BD00380140D9
:105060002DE9F04104460D4617469846069E21E07C
:10507000701CF8B12EB1FDF759FAA0EB0800B04250
:1050800018D92068C06820F4D0702168C8602068F2
:10509000406920F0010021684861202084F83D002B
:1050A00084F83E0000BF002084F83C0000BF0320CD
:1050B000BDE8F081206800682840A84201D10120A5
:1050C00000E00020B842D3D00020F1E700BFFEE7A7
:1050D000490050EAC12018BF04204A0D18BF40F013
:1050E000010040F2FF72B2EB515F08BF40F00200D6
:1050F000012808BF0520704702480068C0F302205D
:10510000704700000CED00E010B5002804DB0A0732
:10511000130E054A135406E00A07140E034A00F062
:105120000F031B1FD45410BD00E400E018ED00E095
:1051300030380A2801D2012070470020704701460C
:105140000022002008E000EB400301EB83035B7AC0
:105150006F2B00D1521C401C0428F4DB1046704712
:105160001FB50446002031E000EB400104EB810153
:10517000097A012929D1002124E001EB4103019A98
:1051800052F8232000EB400354F823309A4218D100
:1051900001EB4103019A02EB8302526800EB4003EA
:1051A00004EB83035B689A420BD16F2200EB400350
:1051B00004EB83035A72002200EB400304EB8303E9
:1051C0001A72491C029A8A42D7D8401C0428CBDBA9
:1051D0001FBD1FB50446002031E000EB400104EB89
:1051E0008101097A012929D1002124E001EB410341
:1051F000019A52F8232000EB400354F823309A42DE
:1052000018D101EB4103019A02EB8302526800EBD3
:10521000400304EB83035B689A420BD1002200EB4E
:10522000400304EB83031A72742200EB400304EB87
:1052300083035A72491C029A8A42D7D8401C042818
:10524000CBDB1FBDF7B53020FAF7EEFF0446009D1B
:10525000019E681C20606660002006E0012100EBD2
:10526000400204EB82021172401C0428F6DB1DB1DF
:10527000681EE060266108E0002121756FF442702D
:10528000E060014621616F216175A561701CE061DC
:105290001EB16562701EA06209E000212C2001553C
:1052A0006F212D200155034860620146A16220460E
:1052B000FEBD000019FCFFFF0FB470B50A9E0799F0
:1052C0000498884208D108990598401A002801DD01
:1052D000012409E0032407E007990498401A0028F4
:1052E00001DD022400E004242146E21704EB92725F
:1052F0009210A4EB82023046F31706EB93739B10D7
:10530000A6EB8303D51A0DB934461AE0002D0CDA4A
:10531000681C10B9FFF7EEFD13E0A81C10B9FFF7E9
:10532000E9FD0EE0FFF702FE0BE0012D02D1FFF7D1
:10533000FDFD06E0022D02D1FFF7F8FD01E0FFF7C9
:10534000D9FD2646304670BC5DF814FB10B5044606
:105350002068FAF798FF00202060A060606010BD10
:105360000146322901DA002070470120FCE770B5C0
:1053700004460D4605EB45018800FAF755FF20600D
:1053800000206060A56070BD10B505210B48FFF7D7
:10539000EEFF05210A48FFF7EAFF002009490860EF
:1053A00048603020FAF740FF07490860054807C801
:1053B000FFF748FF0449086010BD000028020020E4
:1053C0001C020020340200201C0000201FB50446EF
:1053D000D4E9010188420AD1A0684000A060A26817
:1053E00002EB420291002068FAF774FF20606168C6
:1053F000481C606001EB4100216801EB800001A9BD
:105400000EC90EC01FBD10B50121002000F074F8B8
:1054100010BD000010B500224FF400511A48FDF7EE
:105420007FF8012211031848FDF77AF800224FF4A3
:1054300080411548FDF774F800224FF4806112484E
:10544000FDF76EF800224FF400611048FDF768F890
:10545000012211030D48FDF763F800224FF480513B
:105460000A48FDF75DF82821002000F045F80C21DE
:10547000002000F041F80621002000F03DF8012155
:10548000002000F039F810BD00080140000C014078
:1054900070B506460C46154636B1012E0BD0022ECD
:1054A00010D0032E1CD114E004F18000C1B2002002
:1054B00000F022F814E004F1C000C1B2002000F0B6
:1054C0001BF80DE004F19000C1B2002000F014F8C8
:1054D00006E004F1D000C1B2002000F00DF800BFDA
:1054E00000BF04E02978012000F006F86D1C287840
:1054F0000028F7D170BD000070B505460C462DB1EF
:105500000122D1024C48FDF70BF805E000224FF4D0
:1055100000614948FDF704F804F0800028B1012239
:1055200091024648FCF7FCFF05E000224FF4806141
:105530004248FCF7F5FF04F0400028B10122910336
:105540003E48FCF7EDFF05E000224FF480413B4868
:10555000FCF7E6FF04F0200028B1012211033748D0
:10556000FCF7DEFF05E000224FF480513348FCF7E2
:10557000D7FF04F0100028B1012251032F48FCF797
:10558000CFFF05E000224FF400512C48FCF7C8FF84
:10559000012211032848FCF7C3FF00224FF4805179
:1055A0002548FCF7BDFF04F0080028B10122910254
:1055B0002248FCF7B5FF05E000224FF480611F4848
:1055C000FCF7AEFF04F0040028B1012291031B4850
:1055D000FCF7A6FF05E000224FF480411748FCF7D6
:1055E0009FFF04F0020028B1012211031348FCF7C9
:1055F00097FF05E000224FF480511048FCF790FF20
:1056000004F0010028B1012251030C48FCF788FF87
:1056100005E000224FF400510848FCF781FF012209
:1056200011030548FCF77CFF00224FF4805102482B
:10563000FCF776FF70BD0000000C0140000801403F
:10564000FCF786FFFFF748FAFEF796FFFEF74CFFE0
:10565000FFF726F8FFF71AF9FFF7A6F8FFF7DEF8CD
:10566000FEF770FFFEF7FAFF012251031848FCF71E
:1056700057FF012291031648FCF752FF00211548FD
:10568000FEF72EFD08B1FCF717F904211148FEF7CB
:1056900027FD08B1FCF710F9FFF704FA0E48FDF7F3
:1056A000A9FF08B1FCF708F90C210A48FEF700FC35
:1056B00008B1FCF701F904210848FEF7F1F908B137
:1056C000FCF7FAF8FFF760FEFFF7A4FE00BFFEE765
:1056D000000C014000010020900100204801002042
:1056E0002DE9FE4307460D460024002008E000EBAC
:1056F000400105EB8101097A012900D1641C401C9D
:105700000428F4DBA000FAF78FFD06464FF00008EE
:1057100000200BE000EB400105EB8101097A012933
:1057200003D146F8280008F10108401C0428F1DBE9
:10573000002000E0401CA042FCDB9CB13720FAF7BF
:10574000FFFEFAF737FD90FBF4F104FB110956F860
:10575000290000EB400005EB800207CA87E807003C
:10576000BDE8FE83034800909DE8070087E8070036
:1057700000BFF5E70CFEFFFF30B587B004462546B5
:1057800038480EC838480068FFF7EAFC37480EC8AA
:1057900035480068FFF71DFD3348016804A8FFF78E
:1057A0009FFF049800F5FA7060B3314800683149F2
:1057B0000290D1E90101CDE900012E48036804A857
:1057C00007C8FFF779FD2A4908602846FFF7C8FD9A
:1057D000012811D1FFF778F826480EC82348FFF7B3
:1057E000F5FD244804A90EC90EC00C3807C8FFF700
:1057F00029FD1D49086033E01A4804A90EC9FFF7C6
:10580000E5FD2DE018480068FFF799FC042811D148
:10581000002210211848FCF783FE002202211748BD
:10582000FCF77EFE012208211348FCF779FEFFF702
:1058300039F915E00D48FFF789FD0B480068FAF7C4
:1058400022FD05210948FFF792FD3020FAF7ECFC14
:1058500005490860074807C8FFF7F4FC02490860DB
:1058600007B030BD280200201C0000201C020020D0
:10587000200000203402002000080140000C0140FC
:1058800010B500290AD00878002807D005487844C8
:10589000FBF746FB002801D0002010BD02487844E9
:1058A00010BD00009A0700009207000021F000429E
:1058B000A2F16052B2F5801F01F0004328BFD2F17F
:1058C0007F6C0BD95FEA001C43EAC20242EB5070C6
:1058D00018BF704728BF20F001007047B2F5801F45
:1058E000BCBF184670474FEA410C1CF5001F02D29E
:1058F000084600F02CBB70B500F064FA0000008987
:10590000FFF7F6BF4FF00040A0F5800070470000A1
:105910002DE9C04130B4DFF8A0C23CEA111418BF31
:105920003CEA131400F0EC8081EA03051CEA111430
:1059300044EAD57418BF1CEA131500F0C780A4EB25
:1059400005044FF0004545EAC12145EAC32341EA79
:10595000505143EA525304F17F74994204F50034E4
:105960004FEAC0204FEAC22208BF904200F09C805C
:105970004FEA13650FF24016765D4FEA134506FBBA
:1059800005F7C7F1807706FB07F74FEAD737A7FB84
:1059900003687642C8F58038A7FB06CE38BFA8F169
:1059A000010807FB08E64FF0000EA6FB028CE6FBA1
:1059B00003CEDCF1000CCEF1004E38BFAEF1010E8B
:1059C000A6FB0C584FF000074FF00005E6FB0E87D2
:1059D000A1FB08C6A0FB07CE16EB0E0645F100059D
:1059E000E1FB076515F1E04E7EBFA4F580345FEA68
:1059F00046066D4116F1800745F100054FEA17276D
:105A00004FEA066647EA0567A6F1DE46B6F1805F13
:105A10004FEA15251FD9384624F0010C05EBC47157
:105A2000BCF1FE6F01EB0C1102D8F0BCBDE80081A7
:105A300024425CBF01F5801E9EEAC47F02D4F0BC04
:105A4000BDE80081244238D4F0BCA1F1C041BDE8DA
:105A5000004100F005BA4FEAD22242EA43524FEA2F
:105A6000D323A7FB02864FEAD02040EA415007FB30
:105A700003661EEA0E0F4FEAD12105FB026658BFEE
:105A8000A6EB0056B6EB00564FEA520E4EEAC37E26
:105A900018EB0E0E56EB530EBDD518EB02085E4107
:105AA0007F1C55F10005B6E74FF480154FF0000755
:105AB0004FF000064FF00008ADE7F0BC4FF00000DB
:105AC00001F1C04101F00041BDE8008111EA0C1F65
:105AD0000CEA131500D00CE013EA0C1F00F025802F
